:020000040000FA
:10000000D87C00206D0200007B0200007D02000011
:100010007F0200007F0200007F020000000000005D
:100020000000000000000000000000007F0200004F
:100030007F020000000000007F020000CD0D0000E4
:100040007F0200007F0200007F0200007F020000AC
:100050007F0200007F0200007F0200007F0200009C
:100060007F0200007F0200007F0200007F0200008C
:100070007F0200007F0200007F0200007F0200007C
:100080007F0200007F0200007F0200007F0200006C
:100090007F0200007F0200007F0200007F0200005C
:1000A0007F0200007F0200007F0200007F0200004C
:1000B0007F0200007F0200007F0200007F0200003C
:1000C0007F0200007F0200007F020000E90D0000B7
:1000D0007F0200007F0200007F0200007F0200001C
:1000E0007F0200007F0200007F0200007F0200000C
:1000F0007F0200007F0200007F0200007F020000FC
:100100007F0200007F0200007F0200007F020000EB
:100110007F0200007F0200007F0200007F020000DB
:100120007F0200007F0200007F0200007F020000CB
:100130007F0200007F0200007F0200007F020000BB
:1001400000000000000000000000000000000000AF
:100150007F0200007F0200007F0200007F0200009B
:10016000000000000000000000000000000000008F
:10017000000000000000000000000000000000007F
:10018000000000000000000000000000000000006F
:10019000000000000000000000000000000000005F
:1001A000000000000000000000000000000000004F
:1001B0007F0200007F0200007F0200007F0200003B
:1001C0007F0200007F0200007F0200007F0200002B
:1001D0007F0200007F0200007F0200007F0200001B
:1001E0007F0200007F0200007F0200007F0200000B
:1001F0007F0200007F0200007F0200007F020000FB
:100200007F0200007F0200007F020000000000006B
:100210007F0200007F0200007F0200007F020000DA
:100220007F0200007F0200007F0200007F020000CA
:100230007F0200007F0200007F0200007F020000BA
:100240007F0200007F0200007F0200007F020000AA
:100250007F0200007F0200007F0200007F0200009A
:100260007F0200007F0200007F0200000448016856
:1002700041F47001016000F005B8FEE7FEE7FEE71B
:1002800088ED00E0DFF80CD000F0A0F8004800474F
:1002900051320000D87C00200138FDD170470000A9
:1002A00000487047A8610000A0F14101192900D859
:1002B000203070470649074A0868504343F2390224
:1002C000104408604008704701490860704700000A
:1002D000D00000206D4EC64110B5431A934209D29A
:1002E0008318881803E010F8011D03F8011D521E41
:1002F000F9D210BD40EA01039B0703D009E008C909
:10030000121F08C0042AFAD203E011F8013B00F8DA
:10031000013B521EF9D210BDD2B201E000F8012B10
:10032000491EFBD270470022F6E710B513460A4675
:1003300004461946FFF7F0FF204610BD10B50446ED
:1003400004E00B7800F8013B03B1491C521EF8D2BF
:10035000204610BD421C10F8011B0029FBD1801A59
:10036000704730B505460020034600E05B1C934211
:1003700005D2EC5CC85C201A01D1002CF6D130BD4E
:100380000246C9B200E0401C0378002BFBD102E01A
:1003900003788B4203D0401E9042F9D20020704770
:1003A00030B50B46014600202022012409E021FA45
:1003B00002F59D4205D303FA02F5491B04FA02F542
:1003C0002844151EA2F10102F1DC30BD064C074D98
:1003D00006E0E06840F0010394E807009847103415
:1003E000AC42F6D3FFF752FFAC610000CC610000D5
:1003F00000F011000949012809D0102804D0112863
:1004000008D0002008707047102008707047012045
:10041000087070471120087070470000000000202D
:1004200070B54FF08074606C81691148884712483C
:1004300010490160011D0A6842F001020A600021B2
:100440000160206A0D4D002243681121284698471B
:10045000206A0A230122D0F814C011212846E0475F
:10046000206A1121C26A284690470549087070BD6C
:10047000200000204B434F4C2055024000500240CA
:100480004800002070B504460D464FF080701121E1
:10049000006AC26A124890470DB1C1432970114DDC
:1004A0002B7880EA030195F801C0AA788CEA02064D
:1004B000D24302F0FF0C06EA01026A700CEA010C5A
:1004C00085F802C042EA0C02134090431843C0B2C0
:1004D0002870514004B12170C043C0B270BD00000B
:1004E00000500240480000202DE9F8438146089E54
:1004F0000C4690461F46484600F007FD4846FFF769
:1005000029FF00EB40004500802D1BD824B236B1F6
:100510000823802221460020009701F0DAFDC5F172
:10052000800040F34F00214604F096FE002004F0C6
:10053000C9FE3946404604F0BFFE4846BDE8F843D0
:1005400003F00CBBBDE8F8834FF080700822006A0E
:10055000114603684FF0402018472DE9F041064648
:100560000F4634883D88002C07D0601E84B2A5F168
:100570000800844201DA681E85B22946204600F050
:10058000EDFC34803D80BDE8F081D0F8003412F0FD
:10059000010F14BF0B438B43C0F8003412F0020F5D
:1005A000D0F8202414BF114322EA0101C0F820141E
:1005B0007047D0F800C512F0010F14BF4CEA010CCF
:1005C0002CEA010CC0F800C5D0F804C512F0020FE7
:1005D00014BF4CEA010C2CEA010CC0F804C5D0F899
:1005E00008C512F0040F14BF4CEA010C2CEA010CF0
:1005F000C0F808C512F0080FD0F8182514BF0A4338
:100600008A43C0F81825D0F80C2513F0010F14BF49
:100610000A438A43C0F80C25D0F8102513F0020FC6
:1006200014BF0A438A43C0F81025D0F8142513F0EC
:10063000040F14BF0A438A43C0F81425D0F81C25C0
:1006400013F0080F14BF0A438A43C0F81C25D0F8E2
:100650002825002B0CBF114322EA0101C0F8281500
:10066000704700000F4AC0F30741D26E01238B4050
:100670001A420D4A1ABF02EBC1014A6852F83120F2
:10068000C0F3072102F22C53D2F82C254FF00F0CA7
:100690000CFA01FC00F00F0022EA0C028840104323
:1006A0001860704700E00F40D45D000030B504468C
:1006B0000D460222FFF769FF29462046BDE830407B
:1006C00008230122FFF775BF2DE9F04106460F46CA
:1006D00030883C88511E884206DA401C85B2A5420B
:1006E00004D3601C84B201E000250824214628467A
:1006F00000F034FC35803C80BDE8F08130B583B03B
:100700004FF08074606C816939488847606C8169FA
:1007100038488847606C8169374888476420FFF70C
:10072000BBFD206AC021C26B4FF040209047206A79
:10073000324D2021C26B28469047206A816E304896
:100740008847206A8021C26C28469047206A816EC3
:100750002C488847206A4021C26C28469047206A6E
:10076000816E29488847206A1021C26C284690472C
:1007700000F028F90822254B00930192A269244D2C
:100780000023D2F804C001461A462846E047A16972
:10079000284689688847206A8022114603684FF0FE
:1007A00040209847642003F0E3F8206A002280216B
:1007B00003684FF040209847642003F0D9F8206A7E
:1007C0008022114603684FF040209847642003F0D0
:1007D000CFF801F00EFE0F490020488088804FF6C8
:1007E000FF72CA8008810120087003B030BD00008C
:1007F00001000020021C00F0020000200050004018
:10080000021C01000218010002100100C0E1E40016
:1008100000A00040C60000201649042804BF086854
:1008200040F4803018D0052804BF086840F4003038
:1008300012D0062812D00F2815D0102838BF7047C4
:10084000103800F01F01012202FA01F142090A48A2
:1008500050F822000160704708607047086840F453
:100860008020086070474FF0E020016941F00201EC
:100870000161704724ED00E0085F0000084A20F0A5
:100880000303D25813688007C00E4FF0FF0C0CFA18
:1008900000FC23EA0C0301FA00F0184310607047D3
:1008A0006C5E00004FF080700022006A082103682F
:1008B0004FF040201847000038B500244FF478432B
:1008C0001F2214211EA00094FFF70EFE4FF4784360
:1008D0001F221E211EA00094FFF706FE00234FF6E4
:1008E000FF7232211EA00094FFF7FEFD00234FF699
:1008F000FF723C211DA00094FFF7F6FD00234FF688
:10090000FF7246211EA00094FFF7EEFD00234FF674
:10091000FF7250211FA00094FFF7E6FD00234FF661
:10092000FF725A211EA00094FFF7DEFD00234FF650
:10093000FF7278211EA00094FFF7D6FD38BD00009D
:1009400053334D2F4D4F443332204D6F6400000020
:10095000506C617965722076312E302E31000000A6
:100960002863292032303135206279004D6963686F
:1009700061656C2057696C6C69616D736F6E000006
:100980004261736564206F6E2064657369676E737E
:1009900020627900526F6E656E204B20616E64009C
:1009A0005365727665757220506572736F00000032
:1009B0004C6F6164696E672066696C65732E2E2EBC
:1009C00000000000DFF800C230B4DCF86020DCF882
:1009D000701011F0004F14BF01F0700002F03000F1
:1009E0007A4C302808BF47F2305065D007DA98B10A
:1009F000774D784B102816D020280AD138E060288F
:100A000008BF4FF4800057D0702808BF4FF4004053
:100A100052D030BC002070476F4B02F4F86003EBFB
:100A20001010006848E0DCF8000010F0E04F1BD028
:100A3000DCF800002040B0F1805F15D0DCF8000049
:100A40002040A84204D1DCF8000080B202280DD07A
:100A5000DCF800002040984204D1DCF800000004DB
:100A6000000C03D05D4827E05D4825E05D4823E0A9
:100A7000DCF8000010F0E04F1BD0DCF80000204054
:100A8000B0F1805F15D0DCF800002040A84204D10E
:100A9000DCF8000080B202280DD0DCF80000204015
:100AA000984204D1DCF800000004000C03D04E484A
:100AB00002E04E4800E04E4811F0004F02D011F421
:100AC000006F05D001F0004302F400652B4345D1CF
:100AD000DCF800302340A3F18055B5F5A0251AD1EC
:100AE000DCF86031DCF864C10CF01F04CCF3042C9A
:100AF000641C0CF1010C14FB0CFC4FEA4C0CB0FB19
:100B0000FCF0C3F3090C0CFB00FCC3F3892358432E
:100B10000CEB902020E0DCF86430DCF8005015F09D
:100B2000E04F36D0DCF800C00CEA040CBCF1805F6A
:100B30002FD04FEAC36C4FEA9C6CC3F348140CF1FE
:100B4000020C6043B0FBFCF013F4804F18BF400868
:100B500013F4004F18BF800842F4800212F4800F93
:100B600004BF30BC704711F0004F25D011F0804F0A
:100B700008D011F4006F17D001F0004302F40062B6
:100B80001A4311D0C1F3C551491CB0FBF1F030BC80
:100B90007047C3F3481C0CF1020C00FB0CF003F08F
:100BA0001F0C0CF1020CCDE74000C1F38651491C2B
:100BB000B0FBF1F030BC7047C2F3C351491CB0FB2D
:100BC000F1F030BC7047000000E00F400000FF7003
:100BD0000000011000000310985F00000024F400E2
:100BE000C0E1E400001BB70000093D007038390087
:100BF000C0C62D002DE9F041DFF850810446D8F839
:100C0000000010F0E04F06D0D8F80000504908402E
:100C1000B0F1805F04D114F0004F18BFBDE8F0813F
:100C2000D8F86010D8F8700021F4800141F4006514
:100C300040F40066C8F86050C8F8706015F0020F04
:100C400002D014F0020F04D025EA040010F0010FC6
:100C500016D064F003000540C8F8605016F0004F4D
:100C600007D006F07000302859D07020B04356D01D
:100C700002E03020A84352D04FF40020FFF70CFBD5
:100C800025F4FE6004F4FE6141EA0007314926F0D4
:100C9000700020F000402140084304F0080140EAC1
:100CA000C105C8F86070C8F870501020FFF7F4FA5A
:100CB00027F4405004F44051014325F4005004F45B
:100CC000005210434022C8F8582010F0004F08BFCF
:100CD000C8F86010C8F8700018BFC8F8601021F09C
:100CE00003011D4A21F0F8612240114320F0FC501D
:100CF00004F0FC52104314F0804F08BF20F08042F3
:100D000006D0164A20F48000224041F480010243BC
:100D100014F4006F08BF4FF4004003D00DE04FF40F
:100D20008050ABE7D8F8503013F0400F01D1401E8F
:100D3000F8D121F4006122F40062C8F86010C8F80C
:100D40007020BDE8F0411020FFF7A6BA00E00F4088
:100D50000000FF70300000800300C007000040402A
:100D60004FF0704181430CD00F49020F51F822100F
:100D70000A6883B2C0F3044003FA00F0104308602D
:100D80007047C0F307230949C0B2194401F070430A
:100D9000C1F3130143EA411141EA800040F00070C1
:100DA0000122026070470000745F000000E60F40FF
:100DB0004FF0E020016941F00501016170474FF0FB
:100DC000E020016941F002010161704710B5002186
:100DD0000846FFF757FBBDE81040FFF709BB4FF08F
:100DE000E021401E4861704770B54FF080700121CE
:100DF000C06B0268274890472748274900F0704099
:100E0000C1F3130140EA411040F00070016881F025
:100E100001010160214CB4F80008B4F802188842BE
:100E200037D0B4F802081E4D4FF47F4134F810203B
:100E3000284600F061F8B4F80218284604EB410196
:100E4000B1F80024FF2100F057F8B4F802084FF47D
:100E50007F4134F81000A0F252304201114800F0F6
:100E60004BF8B4F80208FF2104EB4000B0F800048E
:100E7000A0F2523042010C4800F03EF8B4F80208EB
:100E8000401CA4F80208B4F80208C0F30800A4F853
:100E9000020870BD003003400C000020882B0020A9
:100EA000002003400000034000100340C26822F00D
:100EB000010222F48072C2600A0E0260CAB242F4D9
:100EC00000724260C1F3072141F4007181607047F4
:100ED000C26840F2011319401143C1607047826932
:100EE00011438161704711F0FF0F18BF826211F446
:100EF0007F4F18BFC262704711F0FF0F18BF026327
:100F000011F47F4F18BF4263704770B506463446F0
:100F100000E0641C257835B1FFF7C2F90068405D38
:100F200010F0010FF5D12046FFF714FA05462A46C6
:100F300021463046FFF7D0F97019441E00E0641EC8
:100F4000A64207D2FFF7ACF900682178405C10F0A8
:100F5000010FF4D10020607070BD00002DE9F04356
:100F600085B007460E4600254FF0010800231F22DA
:100F70000A211AA0CDF80080FFF7B6FAA6F1080002
:100F800084B2B44226D24FF01E09214601A801F0D6
:100F900065F9BC420CD105EB850009EB40014FF42B
:100FA00078431F2201A8CDF80080FFF79DFA0BE0DF
:100FB00005EB850009EB400100234FF6FF7201A805
:100FC000CDF80080FFF790FA681C85B2601C84B2EF
:100FD000B442DAD305B0BDE8F083000053656C6518
:100FE000637420612066696C650000000FB4084BD3
:100FF00010B504A902AA039800F01CF8044602A93F
:10100000002000F0B8F9204610BC5DF814FB000089
:101010007713000002E008C8121F08C1002AFAD1A5
:1010200070477047002001E001C1121F002AFBD168
:10103000704700002DE9FF4F8BB08846054600261B
:1010400006E025280BD0DDE90D1290476D1C761CBB
:1010500028780028F5D10FB03046BDE8F08F002485
:10106000A146A2460122AE4900E0044315F8013F23
:10107000203B02FA03F00842F7D128782A2810D042
:101080006FF02F022878A0F13001092915D809EB5B
:10109000890102EB410144F0020400EB01096D1CDF
:1010A000F0E758F8041B5FEA010903D544F4005443
:1010B000C9F1000944F002046D1C28782E2817D1CC
:1010C00015F8010F44F004042A280ED06FF02F0207
:1010D0002878A0F1300109290AD80AEB8A0102EB2D
:1010E000410100EB010A6D1CF2E758F804AB6D1CDE
:1010F00028786C280FD006DC4C2817D068280DD033
:101100006A2814D104E0742810D07A280FD10DE099
:1011100044F400140AE044F4801401E044F4401460
:101120006978814202D104F580146D1C6D1C287809
:10113000692865D006DC00288DD0632827D0642874
:1011400006D15DE06E2808D073282AD0752877D0A4
:10115000DDE90D129047761CE0E0C4F3025002284E
:1011600009D003280DD0D8F8001004280DD00E6047
:1011700008F10408D2E0D8F80010F217C1E90062C3
:10118000F6E7D8F800100E80F2E70E70F0E718F8D6
:10119000041B8DF8001000208DF80100EB460120A3
:1011A00003E058F804BB4FF0FF3061074FF0000731
:1011B00001D40AE07F1C57450DDA8742FADB1BF8A1
:1011C00007100029F6D106E07F1C8742FCDB1BF8E4
:1011D00007100029F8D1DDE90D23A9EB07008146AE
:1011E000214600F0B1F83044C61904E0DDE90D12E3
:1011F0001BF8010B90477F1EF8D22146484688E035
:1012000058F8040BC4F302514FF00A0B032900D124
:1012100000B2042900D140B2002802DA40422D2158
:1012200002E0210505D52B218DF82410012104E0D1
:1012300006E0E10710D02021F6E708AF089113E09F
:1012400058F8040BC4F302514FF00A0B032900D1E4
:1012500080B2042900D1C0B20021EEE75946FFF761
:101260009FF8303107F8011D0028F7D1ADEB0700DA
:1012700000F1200B600702D524F4803401E04FF028
:10128000010ADA4502DDAAEB0B0000E000208246ED
:1012900000EB0B0108980144A9EB01000A90E00360
:1012A00006D4DDE90D2321460A9800F04DF80644E6
:1012B0004FF0000908E009A911F80900DDE90D1255
:1012C000904709F10109761C08998945F3DBE00391
:1012D0000CD5DDE90D2321460A9800F035F80644C7
:1012E00004E0DDE90D1230209047761CBAF10001D0
:1012F000AAF1010AF5DC05E0DDE90D1217F8010B92
:101300009047761CBBF10001ABF1010BF4DC0A98AD
:101310002146DDE90D2300F005F806446D1C97E633
:10132000092801002DE9F041044600251E46174614
:10133000880404D405E039462020B0476D1C641EA3
:10134000F9D52846BDE8F0812DE9F0410446002595
:101350001E469046C80301D5302700E020278804A8
:1013600004D505E041463846B0476D1C641EF9D5EA
:101370002846BDE8F0810A68531C0B601070704766
:1013800000B5ADF5077D012207A1684600F05EFDBE
:1013900018B10DF5077D002000BD684600F0B6FCD1
:1013A0000DF5077D012000BD6175746F706C61796A
:1013B0002E6461740000000010B504460A4660788F
:1013C000012304F1280100F0BDFB08B1032010BD8A
:1013D00094F8260294F8271240EA0120A0F52A4149
:1013E000553901D0022010BD94F85E0094F86110C8
:1013F00094F85F2040EA016094F86010090441EA23
:101400000221084320F07F410D48814201D1002094
:1014100010BD94F87A1094F87D2094F87B3041EA5E
:10142000026194F87C20120442EA0322114321F065
:101430007F41814201D1002010BD012010BD00007C
:101440004641540000E0401C02780AB18A42FAD1B9
:10145000007870472DE9F04703681A78303A8F4FCB
:10146000092A04D893F801C0BCF13A0F04D03A78A5
:101470002AB10B20BDE8F0879B1C0360F8E7884881
:1014800004680C609CB1207828B1607800F0A0FB63
:1014900010F0010F0ED0002630462670607000F06C
:1014A000B5FA10F0010F08D00320BDE8F0870C203A
:1014B000BDE8F0870020BDE8F087002529462046DA
:1014C000FFF77AFF0146012913D104F5F370027981
:1014D0007AB1017AC27A41EA0261827A407A1204D0
:1014E00042EA002041EA000529462046FFF764FF52
:1014F0000146032903D029B10D20BDE8F087012062
:10150000BDE8F08794F8330094F8341040EA0120E5
:10151000B0F5007F02D00D20BDE8F08794F83E00C2
:1015200094F83F1040EA012272B994F84C0094F804
:101530004F1094F84D2040EA016094F84E100904D1
:1015400041EA022140EA0102626194F83800E07049
:10155000012804D0022802D00D20BDE8F08702FB4C
:1015600000FA94F83510A17011B14B1E194202D047
:101570000D20BDE8F08794F8390094F83A3040EA3D
:10158000032CA4F808C01CF00F0F02D00D20BDE8FA
:10159000F08794F83B0094F83C3040EA032068B9A7
:1015A00094F8480094F84B3094F8498040EA03607E
:1015B00094F84A301B0443EA0823184394F8363061
:1015C00094F8378043EA0829B9F1000F08D009EBF5
:1015D0000A0303EB1C18404505D20D20BDE8F08737
:1015E0000D20BDE8F087A0EB0800B0FBF1F343B39A
:1015F00001202C49C91800D302204FF6F6718B4206
:1016000000D30320991C216105EB0803236205EB3D
:101610000903A361032817D0BCF1000F2DD0534458
:10162000E36102282CD001F0010301EB410103EB3F
:10163000510101F2FF11B2EB512F23D20D20BDE871
:10164000F0870D20BDE8F087BCF1000F02D00D201F
:10165000BDE8F08794F8543094F857C094F855508A
:1016600043EA0C6394F856C04FEA0C4C4CEA052C44
:1016700043EA0C03E3618900DBE70D20BDE8F08756
:101680004900D6E720707888401C7880E080666248
:101690002671E6600020BDE8F0870000B800002059
:1016A000BC0000200AF0FFFF891E0269921E8A42D8
:1016B00001D800207047026A807801FB0020704743
:1016C0002DE9F05F8A46DAF8008001E008F10108B0
:1016D00098F800102F29F9D05C29F7D0D0F818908D
:1016E0000B222021484601F098FF00252F462E4668
:1016F0004FF0080B98F800002E2823D13046761CB6
:1017000018F800002E2801D1032E08D32F280BD063
:101710005C2809D0202807D90620BDE8F09F29467B
:101720006D1C09F80100E9E708EB0601CAF8001092
:10173000202801D8242000E0202089F80B00002078
:10174000BDE8F09F3046761C18F80040202C0BD9DD
:101750002F2C09D05C2C07D02E2C01D05D4516D340
:10176000BBF1080F0AD107E008EB0600CAF8000039
:10177000202C4CD804204BE02E2C02D00620BDE8B3
:10178000F09F08254FF00B0BB806070EDAE7802C08
:1017900001D347F00307A4F181001E2802D95F3866
:1017A0001C2818D83046761C18F80000A0F140011B
:1017B0003F2902D340397D2903D2ABF101018D428B
:1017C00002D30620BDE8F09F691C09F805404D1CB6
:1017D00009F80100B6E721461EA0FFF733FE10B15D
:1017E0000620BDE8F09FA4F14100192802D847F077
:1017F000020707E0A4F16100192803D847F00107A8
:101800004130C4B228466D1C09F800409AE7002018
:1018100025B199F80010E52903D005E00620BDE8C0
:10182000F09F052189F80010BBF1080F01D1B9061E
:101830000F0E07F00301012901D140F0100007F05D
:101840000C01042901D140F0080089F80B000020A8
:10185000BDE8F09F222A2B2C3A3B3C3D3E3F5B5D8E
:101860007C7F000070B504460021204600F085F81A
:1018700000281CD12169206802F066F80546ADB940
:101880006069017821B1C17A11F0080F02D006E039
:1018900004250BE00B22A16901F0AAFE30B1002162
:1018A000204600F005F80546002DE3D0284670BD1F
:1018B00070B50446E088401C85B2002D05D0206933
:1018C00018B115F00F0F02D028E0042070BD401CA5
:1018D0002061E16831B120688278521E12EA151F3A
:1018E00006D01BE020680089A84217D8042070BDEC
:1018F00000F0CCFC0146012901D8022070BDB1F1F5
:10190000FF3F05D0206802698A4203D8042070BDD9
:10191000012070BDE160FFF7C7FE2061E58005F0A2
:101920000F012822206802EB411108446061002069
:1019300070BD10B5044604202169002918D0216922
:10194000206802F001F898B96269117859B1E52967
:1019500003D0D17A11F0080F0AD000212046FFF7FA
:10196000A7FF28B901E0042002E021690029E6D19F
:10197000002801D00021216110BD70B504460D463C
:10198000E580A168012903D0206802698A4201D854
:10199000022070BD19B90278032A00D1C16991B142
:1019A00080780601B5421FD3206800F06FFC014625
:1019B000B1F1FF3F12D0022903D3206800698842A9
:1019C0000ED8022070BDE1600189A94201D8022031
:1019D00070BDC06900EB151020610CE0012070BDE6
:1019E000A81B85B2B542DFD2E1602068FFF75CFE3C
:1019F00000EB1510206105F00F012822206802EB92
:101A0000411108446061002070BD0000F8B5002855
:101A100001D00120F8BD4A4E307810F0020F01D0FD
:101A20003078F8BD02F04AF803F0C2FBFEF73AFF47
:101A300000250021402003F069FB012862D16420C9
:101A4000B0704FF4D571482003F060FB01280DD031
:101A50000021772003F05AFB01283FD8002169209C
:101A600003F054FB012839D8022538E000246F46E2
:101A700003F0A4F93855601CC4B2042CF8D39DF8C7
:101A8000020001283ED19DF80300AA283AD1002186
:101A9000772003F03BFB012805D84FF080416920F7
:101AA00003F034FB10B1B0780028F0D1B07848B31F
:101AB00000217A2003F02AFB20BB002403F07EF9EA
:101AC0003855601CC4B2042CF8D39DF8000010F007
:101AD000400F01D0062515E0022513E00125022D57
:101AE0001DD00021412003F011FB10B1B078002877
:101AF000F5D1B07828B14FF40071502003F006FB07
:101B000000B100253571FEF71FFD03F057F99DB1B7
:101B1000307820F00100307003F0A4FB0EE00021CB
:101B2000772003F0F3FA0128E0D80021692003F0C0
:101B3000EDFA0028DDD0D9E701F0BAFF3078F8BD22
:101B4000C000002070B50D4616461C46002807D17F
:101B500034B11E48017811F0010F03D0032070BD8D
:101B6000042070BD007910F0040F00D17602FEF75A
:101B700099FE012C05D03146522003F0C7FA68B116
:101B80001AE03146512003F0C1FAA8B94FF40071B0
:101B9000284603F0EFF878B100240DE04FF400710F
:101BA000284603F0E7F828B105F50075601E10F02F
:101BB000FF04F3D103F0DCFAFEF7C6FC03F0FEF8F5
:101BC0000CB1012070BD002070BD0000C0000020DD
:101BD000002801D0012070470148007870470000BC
:101BE000C00000202DE9F04F85B082460E9F884648
:101BF00099460026BAF1800F50DAB8F1A00F4DDAFD
:101C00001AF1040F4AD418F1070F47D4A2F12000AB
:101C100000F0FF0B0BEB8B00049008F10700039022
:101C2000380A02904FEA19200190052E02D0BBF12C
:101C3000600F01D9002403E0049881191948445C1D
:101C4000039808F0FF01C3B20AEB0600C2B2C0B2AB
:101C500003F0D8FA4FF080704022006A1146036802
:101C60004FF040209847002514F0010F07D001984D
:101C700003F060FD09F0FF0003F05CFD05E0029851
:101C800003F058FDF8B203F055FD6408681CC5B2B6
:101C9000082DE9D3701CC6B2062EC6D305B0BDE828
:101CA000F08F0000F45B000001B58AB0002203A9A8
:101CB0000AA8FFF7CFFB002826D1CDF824D003A82F
:101CC0000A9900F04BFAE0B90899A9B10899C97AC4
:101CD00011F0100F14D00899089A097D527D41EA3D
:101CE0000221089A0904D27E41EA0221089A927ED2
:101CF0001143039AD16004E0039A0599D16000E092
:101D00000520042800D105200BB000BD10B5044605
:101D10002068A18803F0EEFB002801D1002121609A
:101D200010BD2DE9F04104460D46A188206803F05E
:101D3000E1FB80465FEA080001D0BDE8F081A079B0
:101D400010F0800F02D00220BDE8F081E068A842C8
:101D500000D20546A0680027A760002D44D0216866
:101D600089784E0268B1691E401EB1FBF6F1B0FBE6
:101D7000F6F2914205D3711E8843A0602D1A616965
:101D800001E02169616179B3B54221D9206800F091
:101D90007DFA0146B1F1FF3F0CD0012903D920683B
:101DA000006988420DD8A07940F08000A07102201F
:101DB000BDE8F081A07940F08000A0710120BDE86D
:101DC000F0816161A0683044A060AD1BB542DDD8F0
:101DD000A0682844A060E805C00D05D02068FFF782
:101DE00063FCC0B100EB55272089C005C00D1AD097
:101DF000A069B84217D0206801233A46407804F120
:101E00001C01FFF79FFE68B1A07940F08000A0712F
:101E10000120BDE8F081A07940F08000A07102208F
:101E2000BDE8F081A7614046BDE8F081002801D0FF
:101E30000B207047044A1068002300B1037001B101
:101E40000B70116000207047BC00002077B58BB08C
:101E500004460026266002F00105002204A90CA811
:101E6000FFF7F8FA01A90A9118B904A80C9900F033
:101E700075F9099928B931B3CA7A12F0100F00D058
:101E8000042000281DD1A5710A7D4B7D42EA032262
:101E9000CB7E120442EA03228B7E1A4322610A7F20
:101EA000CB7F42EA03628B7F497F1B0443EA012117
:101EB0001143E160A660A661049921600499C98874
:101EC000A1800EB070BD0620DBE713B584B00446D8
:101ED0000022214605A8FFF7BDFA002824D101A859
:101EE000A0612046059900F039F9D0B9626982B144
:101EF000D17A11F0100F0BD0117D537D41EA0321EF
:101F0000D37E0904927E41EA03211143A16000E0DF
:101F1000052030B92068C088A08000212046FFF746
:101F20002CFD042800D1052006B010BD2DE9F04796
:101F300004468946164698460020C8F80000A18845
:101F4000206803F0D7FA002804D1A07910F0800FA0
:101F500002D00220BDE8F08710F0010F0CD0A1687C
:101F6000E068401A864200D90646002E7ED0A0685E
:101F7000C105C90D03D05FE00720BDE8F0872268E6
:101F80009178491E01EA5021CFB29FB960B1104645
:101F9000616900F07BF9022808D2A07940F0800046
:101FA000A0710220BDE8F0872069F4E7B0F1FF3F9F
:101FB0001DD0606161692068FFF776FBF0B100EB2E
:101FC000070A750A1DB320687A1981788A4200D9F8
:101FD000CD1BEBB2407852464946FFF7B3FDA0B1A6
:101FE000A07940F08000A0710120BDE8F087A079C1
:101FF00040F08000A0710120BDE8F087A07940F09A
:102000008000A0710220BDE8F0876D0223E0A06986
:1020100050450FD0206801235246407804F11C013E
:10202000FFF790FD30B1A07940F08000A071012051
:10203000BDE8F087C4F818A02089C0F30800C0F5F7
:102040000075B54200D93546204400F11C012A46EE
:10205000484601F0D9FAA944A0682844A060D8F8FD
:1020600000002844C8F80000761B00E002E0002EC3
:102070007FF47DAF0020BDE8F08770B584B00446E2
:102080000D46A188206803F035FA00280DD145B12E
:1020900001A8A0612046FFF74CFC0026042806D0CA
:1020A00007E000212046FFF768FC04B070BD266100
:1020B00000200028F9D12946204600F052F90021DD
:1020C0002046FFF7F5FB0428EFD1266104B000207D
:1020D00070BD2DE9F0411646069F1D46802832DA74
:1020E000A02930DA8219521E802A02DBC0F1800258
:1020F00016B24A19521EA02A02DBC1F1A00215B283
:102100004A19521ED3B28219521ED2B2C9B2C0B2FB
:1021100003F078F84FF080704022006A114603689F
:102120004FF040209847002D0DDD3446002C06DD91
:10213000384603F0CDF8611E0CB2002CF8DC681EA6
:1021400005B2002DF1DCBDE8F08108B5002100905A
:10215000A02380220846FFF7BCFF08BD73B50446E4
:102160000199002508782F280FD05C280DD0206811
:10217000C068A0600198007820280AD2002120467B
:10218000FFF7FBFB656102B070BD481C0190A560C4
:10219000F0E701A92046FFF793FA0028F3D1204683
:1021A000FFF760FBA169C97A90B10428EBD111F067
:1021B000200F07D0A5606561002011F0040FE8D062
:1021C00002B070BD11F0040FFAD1052002B070BD4D
:1021D00011F0040FFAD16069C17A11F0100F0BD021
:1021E000017D427D41EA0221C27E0904807E41EAEE
:1021F00002210843A060CCE7052002B070BD0000BA
:1022000070B50546002D03D028782E2802D003E0B3
:10221000002070BD697811B12E2802D006E00020A0
:1022200070BD68782E2801D1A87870B100240A4EBC
:1022300004EB440006EBC001284603F053F830B12C
:1022400004EB440006EBC00070BD002070BD641CB0
:10225000302CEDD3002070BD54000020502908D848
:1022600001EB810202EBC101024A11440D22FEF78B
:1022700065B870477C3F002003484068002801D0C3
:1022800040690047002070474C0000202DE9F041D4
:1022900004460D46022D02D32069A84202D801202F
:1022A000BDE8F0812078012806D040F2FF16022810
:1022B00029D003283FD137E005EB5506A06900EB94
:1022C0005621204601F040FBA8BBC6F3080020447D
:1022D00090F82870761CA06900EB5621204601F08A
:1022E00033FB40BBC6F30800204490F8280047EABF
:1022F000002015F0010F02D00009BDE8F081C0F305
:102300000B00BDE8F081A06900EB1521204601F02B
:102310001BFB80B906EA450020442830017840784C
:1023200041EA0020BDE8F081A06900EBD51120460C
:1023300001F00AFB18B14FF0FF30BDE8F08106EA6A
:102340008500204428300178C27841EA0261827811
:102350004078120442EA0020084320F07040BDE8B3
:10236000F08110B401F109020369002B3DD04069EE
:102370004FF0000C10F80C30202B09D0052B00D1A9
:10238000E52302F8013B0CF1010CBCF1080FF1D37D
:10239000037A202B0DD02E2302F8013B082310F8DE
:1023A00003C0BCF1200F04D002F801CB5B1C0B2B47
:1023B000F5D3C37A0B72037F90F81FC0447F43EAC2
:1023C0000C6390F81EC04FEA0C4C4CEA042C43EA14
:1023D0000C030B60037E90F819C043EA0C238B803A
:1023E000837DC07D43EA0020C8800020107010BCAF
:1023F000704710B5012003F0E5F9962001F0B8FA16
:10240000112003F0DFF94FF4FA7001F0B1FAB120B6
:1024100003F0D8F9012003F0E5F92C2003F0E2F9EC
:102420002D2003F0DFF9B22003F0CCF9012003F0F6
:10243000D9F92C2003F0D6F92D2003F0D3F9B320DD
:1024400003F0C0F9012003F0CDF92C2003F0CAF904
:102450002D2003F0C7F9012003F0C4F92C2003F06C
:10246000C1F92D2003F0BEF9B42003F0ABF9072029
:1024700003F0B8F9C02003F0A5F9A22003F0B2F9E7
:10248000022003F0AFF9842003F0ACF9C12003F07F
:1024900099F9C52003F0A6F9C22003F093F90A20A8
:1024A00003F0A0F9002003F09DF9C32003F08AF99E
:1024B0008A2003F097F92A2003F094F9C42003F04E
:1024C00081F98A2003F08EF9EE2003F08BF9C52004
:1024D00003F078F90E2003F085F9202003F072F95B
:1024E000362003F06FF9C82003F07CF93A2003F09E
:1024F00069F9052003F076F92A2003F063F900203A
:1025000003F070F9022003F06DF9002003F06AF97E
:10251000812003F067F92B2003F054F9002003F029
:1025200061F9012003F05EF9002003F05BF9A020BF
:1025300003F058F9E02003F045F9022003F052F9C6
:102540001C2003F04FF9072003F04CF9122003F090
:1025500049F9372003F046F9322003F043F92920E6
:1025600003F040F92D2003F03DF9292003F03AF95A
:10257000252003F037F92B2003F034F9392003F03C
:1025800031F9002003F02EF9012003F02BF903208C
:1025900003F028F9102003F025F9E12003F012F9E7
:1025A000032003F01FF91D2003F01CF9072003F09E
:1025B00019F9062003F016F92E2003F013F92C2048
:1025C00003F010F9292003F00DF92D2003F00AF98A
:1025D0002E2003F007F92E2003F004F9372003F032
:1025E00001F93F2003F0FEF8002003F0FBF8002083
:1025F00003F0F8F8022003F0F5F8102003F0F2F8E9
:10260000132003F0DFF80A2001F0B2F9292003F0CB
:10261000D9F8BDE81040642001F0AAB970B5124C99
:10262000014604F10900FFF719FE2E2104F109000B
:10263000FDF7A6FE002816D004F10900FFF7E0FD23
:102640000A4D6860617A00290DD000280BD0012264
:1026500004F1090104F11800FFF7F8FB686800694C
:10266000BDE87040004770BD483D00204C00002090
:1026700070B50024154D05F50D761449A1F11C0027
:10268000FFF7FBFC687AF8B12E2105F10900FDF790
:1026900077FEB8B10EA105F1090002F023FE28B9BA
:1026A0000DA105F1090002F01DFE58B104EB8400F4
:1026B00000EBC40030440D2205F10901FDF73EFE98
:1026C000601C84B2502CD8D3204670BD483D0020F9
:1026D0002E4D4F44000000002E53334D00000000EB
:1026E000F0B583B002AB14225C495D48FFF71EFCD5
:1026F00000255A4E4FF6FF77C5EB051006EB400458
:1027000004F1140102AB16225548FFF70FFC02AB8F
:10271000022201A95248FFF709FC9DF805109DF817
:10272000040003F003F807EA4000608504F12C017F
:1027300002AB01224A48FFF7F9FB94F92C00072865
:1027400002DD103884F82C0004F12D0102AB0122C7
:102750004348FFF7EBFB02AB022201A94048FFF719
:10276000E5FB9DF805109DF8040002F0DFFF07EA85
:102770004000E08502AB022201A93948FFF7D6FBF1
:102780009DF805109DF8040002F0D0FF07EA400014
:102790002086E18D0A18608D824201D9401A208678
:1027A000681CC5B21F2DA7D302AB012206F2B631B9
:1027B0002B48FFF7BBFB02AB012201A92848FFF71A
:1027C000B5FB002086F8B7030024351905F56E71B6
:1027D00002AB01222248FFF7A9FB95F8B80396F84F
:1027E000B713884201D986F8B703601CC4B2802CA5
:1027F000EBD396F8B703401C86F8B70302AB04226C
:1028000001A91748FFF792FB01AC032215A1601C38
:10281000FDF7A7FD50B1022213A1A01CFDF7A1FDF9
:1028200058B1042086F8380403B0F0BD9DF80400C8
:10283000303886F8380403B0F0BD9DF804009DF8E8
:102840000510303800EB80006FF02F0202EB4000E3
:10285000084486F8380403B0F0BD0000501700208B
:10286000603D002043484E00434800002DE9F047FA
:1028700088B007AB1C22DD49DD48FFF757FB20215C
:10288000DB48FFF74EFA07AB022206A9D848FFF74C
:102890004DFB07AB0222D749D548FFF747FB07ABF3
:1028A000022205A9D248FFF741FBD34C4FF00008A4
:1028B00084F8608007AB022204A9CD48FFF736FBFD
:1028C000BDF810004FF0010510F0400F01D084F862
:1028D000605007AB022204A9C548FFF727FBBDF8EB
:1028E0001000C0F30B00B0F5967F01D184F8605062
:1028F0003021BF48FFF715FA07AB0122BF49BC489A
:10290000FFF714FB07AB0122BD49B948FFF70EFBE7
:1029100007AB012201A9B648FFF708FB9DF80400A8
:102920004000CD2110FB01F0800A44F64B41B1FB81
:10293000F0F0B449A1F8040507AB012203A9AC48A3
:10294000FFF7F4FA07AB012201A9A948FFF7EEFA55
:1029500007AB012202A9A648FFF7E8FA4021A448E4
:10296000FFF7DFF984F86281FF220E21A648FDF708
:10297000D3FC0025A54E9D4F4FF003094FF00C0AE4
:1029800007AB012201A99A48FFF7D0FA9DF804008D
:10299000102816D27A1902F5805294F8621182F842
:1029A0006311082804D294F8620100F8069003E04D
:1029B00094F8620100F806A094F86201401C84F8C3
:1029C0006201681CC5B20E2DDAD360218848FFF77A
:1029D000A8F98F4907ABBDF818200D468448FFF7CA
:1029E000A5FAA4F85A80A4F85E800020BDF818303B
:1029F000002B1DD9391801F58052B4F85AC092F84D
:102A000062100CF8051092F86210FE290CD2B4F88E
:102A10005A10491CA4F85A1092F86220B4F85E10BB
:102A20008A4201D9A4F85E20401CC0B29842E1D38A
:102A3000B4F85C0007AB420076496D48FFF776FAC0
:102A4000BDF8140007AB420073496948FFF76EFAFE
:102A50009DF80800FC2819D1002507AB012201A927
:102A60006348FFF763FA9DF8041011F0200F09D0B6
:102A7000781900F5805090F863010E2802D201F019
:102A80000F018155681CC5B20E2DE6D39DF80C00D0
:102A900010F0800F09D10020604A0821131883F834
:102AA0006A17401CC0B20E28F8D3002042F2AB08CF
:102AB000C0EBC00101EB410107EB4101A1F84280ED
:102AC000401CC0B26328F3D30026B4F85C00002891
:102AD0007ED94FF00D0907EB460000F58050B0F8A5
:102AE000720109EB00114248FFF71BF907AB012205
:102AF00001A93F48FFF71AFA07AB022204A93C4894
:102B0000FFF714FAC6EBC60000EB400007EB4005E8
:102B1000BDF81010298705F13A0107AB02223448AD
:102B2000FFF704FA07AB022204A93148FFF7FEF9C8
:102B300005F13C0107AB02222D48FFF7F7F907AB7F
:102B4000022204A92A48FFF7F1F905F13E0107AB7B
:102B500002222748FFF7EAF907AB022204A924481A
:102B6000FFF7E4F905F1400107AB01222048FFF728
:102B7000DDF907AB022204A91D48FFF7D7F907AB1F
:102B8000012201A91A48FFF7D1F99DF8040000F0CD
:102B9000010085F8440005F1420107AB0222144808
:102BA000FFF7C4F9B5F8420008B9A5F842800798C4
:102BB00000F10E010E48FFF7B4F805F11C0107AB58
:102BC0001C220B48FFF7B2F9E98F688F814200E0C1
:102BD00008E000D9E887701CC6B2B4F85C00B042C7
:102BE0003FF679AF08B0BDE8F0870000501700202D
:102BF000603D0020AC27002050270020B127002096
:102C0000DA150020D4100020B3280020F63A002066
:102C1000B2270020C2280020882900208C33002001
:102C20002DE9F843FFF75CFD00F084FA41484FF4CA
:102C30003531C0F880114FF4C371A0F8841106211A
:102C400080F8861180F88711002280F8882180F8AA
:102C50008A21FF2480F88B4180F88C21002036499E
:102C600091F83834002B44D9344D354EDFF8D4C0B8
:102C700020274FF06008291801F5805181F88D2137
:102C800081F89B2105EB400909F58059A9F8FE213F
:102C900081F8442281F8522281F8602281F86E2264
:102CA00081F87C2281F88A2281F8982206EB800143
:102CB00001F54051C1F80028311801F5405181F863
:102CC00038480CEB8001C1F808270CEB4001A1F853
:102CD00040270CEB000181F85C2710F0030926D097
:102CE000B9F1030F23D081F86A87401CC0B2834238
:102CF000C1D81548A0F80028A0F8022800921E2389
:102D0000802278210020FFF7E4F9012400231F220C
:102D100078210EA00094FDF7E7FB00234FF4FC623E
:102D2000822105480094FDF7DFFBBDE8F88381F8B8
:102D30006A77DAE7D410002050170020D400002072
:102D40008C4300208C330020882B00204E6F77208E
:102D5000706C6179696E672E2E2E00002DE9F05F90
:102D6000DFF8E08098F83814484340F23C4101EB2A
:102D700000213548FEF7D5FF344C00202070DFF8E5
:102D8000D0B0344D4FF6FF7904F12C06002060706E
:102D900098F8380400284CD92F4B0422191D2A48D2
:102DA000FFF7C4F83278B37802F0F00000EB1317A5
:102DB0002078C0EBC00C607805EB4C010F5477789D
:102DC00002F00F0207EB0222A28205EB8C0C0CEB47
:102DD0004007A7F880934FF0010C84F802C094F8E4
:102DE00002C00BEB0C1ABAF800A0AAF1030E96452C
:102DF00007DA0AF1030A924503D94FEACC0AA7F889
:102E000080A30CF1010C0CF0FF0C84F802C0BCF1A3
:102E1000250FE4D3014403F00F0281F8802AF278F1
:102E200081F8002E401CC0B2607098F838148142BE
:102E3000B2D82078401CC0B220704028A6D3BDE88C
:102E4000F09F000050170020603D0020100000207F
:102E500028580000D4000020380000202DE9F0415F
:102E6000DFF89C81022108EB400000F58050B0F8AB
:102E7000380201EB00116348FEF753FF624D002753
:102E80002F70624E6C246F702A78C2EBC20006EB82
:102E90008001687821F81040401CC0B268700E288C
:102EA000F7D3501CC0B228704028ECD34FF46071A7
:102EB00006F5E060FDF737FAFF224FF4607106F582
:102EC0002860FDF729FA4FF4607106F56060FDF7A0
:102ED0002AFA4FF4607106F58C50FDF724FA2F7032
:102EE0006D274B4B0122A3F126014648FFF71EF840
:102EF000A87800287BD000F01F01414401F58051E3
:102F000091F863116970FF2974D010F0200F28D058
:102F10003F4B0122A3F110013A48FFF707F8288B35
:102F2000FE285BD0FF284FD000F00F01000900EB16
:102F3000400001EB800128786A78C0EBC00006EB06
:102F4000800020F8121028786978C0EBC00006EBEA
:102F50004000084400F5E0612D4B01222948FEF7AE
:102F6000E5FFA87810F0400F0DD028786978C0EB05
:102F7000C00006EB4000084400F52861244B012204
:102F80002048FEF7D3FFA87810F0800F32D02878C1
:102F90006978C0EBC00006EB4000084400F56061B2
:102FA0001B4B01221748FEF7C1FF28786978C0EB58
:102FB000C00006EB4000084400F58C51144B012280
:102FC0001048FEF7B3FF15E028786978C0EBC00021
:102FD00006EB800020F81140B5E708E02878697812
:102FE000C0EBC00006EB800020F81170ABE728783A
:102FF000401C287028784028FFF473AFBDE8F081AA
:1030000050170020603D002084000020D4000020E4
:10301000AC000020F8B5FFF729FC00F0CDF83A48E5
:103020003849C0F8001590F8061580F807150022F9
:1030300080F8082580F80A25FF2580F80B5580F8D0
:103040000C250021314890F86241002C3DD9DFF871
:10305000C0C0304E304B0CEB010000F5805080F8C2
:103060000D2580F81B250CEB410707F58057A7F8C5
:103070007E2580F8E02580F8EE2580F8FC2580F894
:103080000A2680F8182680F8262680F8342680F84C
:10309000422680F8502606EB810000F54050C0F82B
:1030A0000028701800F5405080F8385803EB810074
:1030B000C0F8082703EB4100A0F84027581880F813
:1030C0005C27481CC1B28C42C5D81448A0F800281F
:1030D000A0F8022800921E23802278210020FEF70B
:1030E000F8FF012400231F2278210DA00094FDF792
:1030F000FBF900234FF4FC6282210D480094FDF798
:10310000F3F9F8BD00740B00D41000205027002004
:10311000D40000208C4300208C330020882B00201A
:103120004E6F7720706C6179696E672E2E2E0000CD
:1031300050170020F0B41E4E96F8B70396F83814D6
:1031400010FB01F040F23B4101EB00220020194D41
:103150000027C0EB001106EB4103598D11B345F870
:1031600020208C1805EB8001C1F88C41B3F830C0E9
:10317000BCF1020F0DD9DB8D1A44C1F8182305EB01
:103180004002A2F8A4C4D1F818236244C1F86C2507
:1031900007E0C1F8187305EB4002A2F8A474C1F867
:1031A0006C752246401CC0B21F28D2D3F0BC7047B9
:1031B000501700208C3300202DE9F0030020224915
:1031C000B1F85C50002D3BD9204E4FF0FF39A1F5EE
:1031D00080580027C0EBC00101EB410108EB41031F
:1031E000198F09EB01115A8F32B346F8201002EB08
:1031F000010C06EB8002C2F88CC193F844C0BCF10C
:10320000000F11D0B3F83EC09C8FACEB0403022B2F
:103210000ADD0C44C2F8184306EB4004A4F8A434B9
:103220006144C2F86C1507E0C2F8187306EB400160
:10323000A1F8A474C2F86C75401CC0B28542C9D80C
:10324000BDE8F00370470000502700208C330020B9
:1032500082B000244FF08076B06F00698047BB4891
:10326000FDF7C8FCFDF74AFA0020FEF76EFFB848EC
:10327000FDF776FDB748FDF773FDB748FDF770FD24
:10328000DFF8D882B64F41463846FDF70FFE4FF6BD
:10329000FF724FF47F413846FDF725FE00224FF4C0
:1032A0007F413846FDF728FEAE4D41462846FDF7E2
:1032B000FDFD4FF6FF72FF212846FDF714FE0022A8
:1032C000FF212846FDF718FE4FF6FF724FF47F41AD
:1032D0002846FDF708FE00224FF47F412846FDF7FF
:1032E0000BFEF86840F48040F860E86840F0400069
:1032F000E860E86840F48040E8604FF6FF713846C7
:10330000FDF7E6FD4FF6FF712846FDF7E1FD964813
:10331000FDF7A8F9954D02212846FDF7C7F90823C6
:103320000C2202212846FDF744F99148FDF79AF94D
:1033300008212846FDF7BAF908230C221946284629
:10334000FDF737F98B48FDF78DF904212846FDF785
:10335000ADF908230C2204212846FDF72AF98648F6
:10336000FDF7FEFC8548FDF77DF9854D02212846D5
:10337000FDF79CF98348FDF775F901212846FDF713
:1033800095F98148FDF7ECFC804D41462846FDF754
:103390008DFDEA14FF212846FDF7A5FD0022FF213F
:1033A0002846FDF7A9FDEA144FF47F412846FDF7B2
:1033B0009AFD00224FF47F412846FDF79DFD4FF610
:1033C000FF712846FDF784FD7148FDF7C9FC714D7A
:1033D00022212846FDF76AFD41F20102FF2128461D
:1033E000FDF781FDFF212846FDF772FDFDF718F876
:1033F000FDF7E8FA0009FDF7F2FCFDF7D9FC002122
:103400003320FDF73BFA80210F20FDF737FAB06C2F
:10341000406880473320FDF7FFF901212846FDF77A
:103420005EFDFDF7CCFCFDF747FAB06C8068804785
:103430000020FEF7EBFA0028FAD15749FEF7F6FC18
:1034400056A0FEF731FC57A15748FEF73EFDFDF7A9
:1034500097FF564DE870002740B100234FF4FC62FF
:103460006E2153A00097FDF73FF807E000234FF4CB
:10347000FC626E2153A00097FDF736F8FFF7F8F8CD
:10348000A8804FF4FA6000F073FAA88870B10020A9
:10349000FEF75BFEE9882889FDF760FD2889FFF7C4
:1034A000BDF8B06C406880474B4E07E000231F22F8
:1034B00082214AA00097FDF717F8FEE7B6F800084A
:1034C000B6F80218401CC0F308008842F6D07CBB56
:1034D000E878A978084209D04449AA88881CFDF7F1
:1034E000F3F82889FFF79AF8AF701CE0287869781C
:1034F000884218D028786870287810F0100F06D00D
:103500003A49881CFDF729F82889FFF787F82878B9
:1035100010F0010F07D03549AA88881CFDF7D4F8B0
:103520002889FFF77BF800F033FAFEF7A5FE044682
:1035300000F07CF8601E84B2B6F80008B6F80218F5
:10354000401CC0F308008842C1D1B7E7400500C164
:103550002000002001001010020010100A0A0004D0
:103560000000034000100340070405000050024023
:10357000070C0500070805000200002007040100F1
:10358000005000400700010004001010002003401C
:103590000800101000300340043B00202F6D6F64C2
:1035A000730000002E0000002C3D002000000020D1
:1035B0004175746F706C61793A20456E61626C651B
:1035C000640000004175746F706C61793A20446941
:1035D0007361626C65640000882B00204E6F206D63
:1035E0006F647320666F756E642100000600002012
:1035F0000023521E06D310F8013B11F801CBB3EBA8
:103600000C03F6D018467047521E05D311F8013B43
:1036100000F8013B521EF9D27047521E04D3C9B2C2
:1036200000F8011B521EFBD270470000034840689F
:10363000002801D0C0680047704700004C000020FF
:103640000148B0F884017047D41000202DE9F05FE4
:10365000834D4FF0000BA5F81EB0A5F820B085F8FB
:1036600011B0804E96F8380400287DD9DFF8F89123
:103670007E4C6A7C04EB4208B8F84017002974D0ED
:10368000A01890F8F836C3EB031306EB43035B8DE9
:10369000002B6AD004EB8207D7F8083703EB010C44
:1036A000C7F808C790F85C1700295ED090F8F83684
:1036B00054F8231001EB9C21296304EB430ABAF868
:1036C000A4A4BAF1000F12D004EB8303D3F86C3535
:1036D0008B421BD8ACEB8A23C7F8083790F8F83632
:1036E00004EB4303B3F8A434C91A29630EE004EBD6
:1036F0008303D3F88C318B4208D8A8F840B790F8F0
:10370000F81604EB8101D1F88C11296309EB8201D1
:1037100001F54051D1F80038296B8B420CD803F2E7
:10372000FF338B4208D94A4402F5405290F8F836EC
:1037300092F8382893422DD090F8F80604EB8000D8
:10374000B0F88C01401A401C80B26884B0F5806FDC
:1037500002D94FF4806068844548FEF7E2FA687C3D
:10376000444B09EB802101E059E04FE06A8C40486E
:10377000FEF7DCFB687C296B09EB800202F5405206
:10378000C2F800182118484400F5405091F8F81686
:1037900080F83818687C2B8E09EB800101F54051C8
:1037A00009EB8022B1F800185B1AC3F309015156E6
:1037B000A9745B1CC3F30903D256EA7404EB8003BB
:1037C000521AB3F80837C3F3090312FB03F201EBF3
:1037D0009221C900204490F85C2712FB01F141F3CB
:1037E0008F11A98490F86A07C0F18002402A00DB9B
:1037F0004022EB8B4A4303EBA212EA83402800D31A
:1038000040204843298C01EBA0102884687C401C90
:10381000C0B2687496F8381481423FF62AAFB5F901
:103820001E00C110E983B5F92000C010288401F5FD
:1038300080621149B1F8003821F81320B1F800284E
:1038400000F5806001EB4202A2F80004B1F8000824
:10385000401CC0F30800A1F80008BDE8F09F00007C
:1038600010000020501700208C4300208C330020D3
:10387000603D002044000020882B002070B586B0F9
:10388000294C2A4E002594F8870194F88611884225
:103890002ED184F8875194F88801402810D194F8EB
:1038A0008A01401CC0B284F88A0196F8B613884297
:1038B00004D184F88A511E490120087084F8885187
:1038C00094F88C0118B1401E84F88C0112E094F831
:1038D0008A0194F88B11884203D01649405CFFF7A7
:1038E0003DFA94F88A0184F88B0100F045F901E073
:1038F00000F06EFE94F88701401C84F8870196F86A
:10390000B603009094F88A3194F888210AA101A89E
:10391000FDF76CFB00234FF478428C2101A8009541
:10392000FCF7E2FD06B070BDD41000205017002057
:1039300002000020081B0020253032752F25303270
:10394000752F25303275000070B504460D46606A4B
:10395000A8420BD055B1607801232A4604F1280112
:10396000FEF7F0F808B1012070BD6562002070BD5F
:1039700070B505460024002D07D9044E3046FCF7EB
:103980008BFC611D8CB2AC42F8D370BDF0490200D3
:1039900003484068002801D0806800477047000055
:1039A0004C00002010B41D491C4B01EB400101F5F7
:1039B00080510344B1F9FEC1B1F81A2203F58053D6
:1039C00094450CDA93F83642A4440FFA8CFCA1F823
:1039D000FEC1944503DDB1F81AC2A1F8FEC1B1F9E8
:1039E000FEC194450CDD93F83632ACEB03031BB2F9
:1039F000A1F8FE31934203DAB1F81A22A1F8FE21B0
:103A0000074AB1F9FE11D2F88021B2FBF1F1054A63
:103A100002EB4000A0F8401710BC7047D400002013
:103A2000D41000208C33002010B41E491D4B01EB34
:103A3000400101F580510344B1F97EC5B1F8B625C6
:103A400003F5805394450DDA93F8D2450CEB840CC2
:103A50000FFA8CFCA1F87EC5944503DDB1F8B6C51C
:103A6000A1F87EC5B1F97EC594450CDD93F8D23539
:103A7000ACEB83031BB2A1F87E35934203DAB1F8B5
:103A8000B625A1F87E25084AB1F97E15D2F80025A1
:103A9000B2FBF1F1054A02EB4000A0F8401710BC60
:103AA00070470000D4000020D41000208C33002088
:103AB0000149002048707047C000002030B583B035
:103AC0004FF08074606C81691F488847606C816921
:103AD0001E488847206A3421C26C4FF0402090472E
:103AE000206A0821C26B4FF040209047206A0A23C9
:103AF0000222D0F814C010214FF04020E047206A85
:103B000008230222D0F814C02C214FF04020E047B7
:103B1000606C006E804708220D4B00930192A269F1
:103B20000C4D0023D2F804C001461A462846E0474F
:103B3000A16928468968884701F03AFB06490120B7
:103B4000487003B030BD00001000001001000020DC
:103B5000801A060000800040C000002070B50546B5
:103B600000242878002806D0285D01F005FE641C9A
:103B7000285D0028F8D170BD2DE9F04F82B0FE49D4
:103B800091F8880181F88901401C81F888010020A2
:103B900001900090F94D6871DFF8E4E39EF8382455
:103BA000002A71D98046A1F5805391F88901C0EBB4
:103BB000C00C687903EB4C0212F8009085F806906F
:103BC00003EB8C0C0CEB400CBCF88063EE820244DF
:103BD00092F8804AEC7192F8002E2A724FEA121C79
:103BE00085F809C002F00F07AF72A5F81880B9F187
:103BF000000F15D003EB000AA9F101070AF5805A5E
:103C0000FFB28AF8A9710E2A02D1BCF10D0F07D0BC
:103C1000C7EB07170EEB470797F82D708AF8B771B7
:103C2000A6F57F47FF3F2AD003EB400707F5805AF0
:103C3000AAF8C6611F1807F5805797F8A9B1CBEB12
:103C40000B1B0EEB4B0B9BF92CB0B344CD4E36F84F
:103C50001B60AAF8E261032C05D0052C03D0BAF84A
:103C6000E261AAF8FE6197F8446216F0800F01D174
:103C700087F86E8216F0080F01D187F89882E61E49
:103C80000D2E80F0448100E09BE1DFE806F0071A8A
:103C90002D9B3A4B519B616E7D9CF40022B11E1806
:103CA00006F5805686F8362203EB400202F5805274
:103CB000B2F8E261A2F81A624FF6FF72EA8200F0EF
:103CC00026B9BCF1000F04D01A1802F5805282F810
:103CD00052C2AA7A002A00F01A811E1806F58056F0
:103CE00086F8602200F013B903EB400202F580521F
:103CF000B2F8E261A2F81A624FF6FF72EA8200F0AF
:103D000006B9BCF1000F04D01A1802F5805282F8EF
:103D10007CC2AA7A002A55D01E1806F5805686F86D
:103D20008A22F4E0984E5208064486F86A27EEE0AC
:103D300012022A831E1806F5805696F8A961C6EB72
:103D400006160EEB4606768D96423BD22E83DEE0BB
:103D500081F88A219EF8B663B24201D381F88A8144
:103D600081F8888101220192D1E0402A06D94022BF
:103D70001E1806F5805686F8B721C8E01E1806F50D
:103D8000805686F8B721C2E0AE7A0CEB8C0206EBC7
:103D90004202D2B281F88821402A01D381F8888179
:103DA000009E019A32430BD191F88A21521CD2B263
:103DB00081F88A219EF8B663B24201D381F88A81E4
:103DC00001220092A3E0BCF10F0F53D2DFE80CF008
:103DD0009F08139F1E2A3C5C9F9F6979889F8C00D7
:103DE00003EB400202F58052AF7AB2F8FE61F61B97
:103DF000A2F8FE618BE003EB400202F58052AF7A3D
:103E0000B2F8FE613E44A2F8FE6180E01A1802F5A5
:103E1000805292F8446206F0F006AF7A3E4382F890
:103E2000446274E01E1806F58056AA7A96F8A961D5
:103E3000C6EB06160EEB460686F82C20072A66DD32
:103E4000103A86F82C2062E0AF7AAFB11A1802F56A
:103E5000805292F88D611EB1761E82F88D6101E06C
:103E600082F88D7192F88D6126B192F89B21521ED5
:103E700081F888214BE03BE01E1806F5805691F84A
:103E8000882186F89B2142E01A1802F5805292F8A8
:103E9000446206F00F06AF7A46EA071682F84462DB
:103EA00035E01A1802F58052AF7A92F8B7613E44B5
:103EB00076B282F8B761402E29DD402682F8B761DC
:103EC00025E01A1802F58052AF7A92F8B761F61B16
:103ED00076B282F8B761002E19DA82F8B78116E05F
:103EE0004FF6FF72EA8212E0AA7A81F88C210EE086
:103EF000202A02D281F8862109E05200CD267243A1
:103F0000920A44F64B46B6FBF2F2A1F88421EA8A03
:103F10004FF6FF76B2420FD103EB400707F580570B
:103F2000B7F8FE71BFB1042C15D0062C13D00E2C9F
:103F300002D1BCF10D0F0ED003EB400707F58057FF
:103F4000D1F880C1B7F9FE71BCFBF7FC0E4F07EB4F
:103F50004007A7F840C7B24207D0DFF82CC02A8B31
:103F60000CEB800C9202CCF80827B9F1000F14D0AA
:103F70001A1802F5805209E0D41000201000002029
:103F800050170020285800008C330020DFF838C07C
:103F900092F8A92184448CF8F826072C09D01A1825
:103FA000DFF824C002F58052844492F8B7218CF8DF
:103FB0005C27401CC0B268719EF8382482423FF6EC
:103FC000F4AD02B0BDE8F08F8C3300202DE9F04F46
:103FD00083B0FC4C94F8080584F80905401C84F86B
:103FE0000805002001900090F74800274771DFF88E
:103FF000DC8398F8621100297DD9A8F58059A4F5D1
:10400000805594F80905DFF8C0C3C0EBC00105EB8B
:1040100081029CF8050032F81030ACF81A3005EB3C
:104020004101014491F800678CF8066091F8802AFC
:104030008CF80720029291F800AE8CF808A001F5E8
:10404000805191F880118CF809100A098CF80A2027
:1040500001F00F0B8CF80BB0ACF81C70AEB105EB97
:10406000000B761E0BF5805BF6B28BF829651329E1
:1040700001D10D2A09D0C6EBC60606EB460609EBB0
:10408000460696F840608BF837656C2B40D205EBFE
:10409000400C0CF58056A6F84635DFF834C342F2E2
:1040A000AB0B3CF813C00CFB0BFB05EB000C0CF549
:1040B000805C9CF829E5CEEBCE0E0EEB4E0E09EBA4
:1040C0004E0EBEF842E0BBFBFEFBA6F862B5BAF1AD
:1040D000070F06D0BAF10C0F03D0B6F862B5A6F8F8
:1040E0007EB59CF8E065DFF8E0E216F0800F01D1C4
:1040F0008CF80A7600E063E216F0080F01D18CF824
:1041000034768CF850764FF0010C8EF80CC003E03A
:10411000DFF8B4C28CF80C70DDF808C0AA4EBCF110
:10412000400F07D805EB000B0BF5805BDDF808C0EE
:104130008BF837C56D2B04D12B1803F5805383F80A
:104140003775BAF1160F80F0E681DFE80AF0B00BA0
:104150000F1D3D83B1DEF8F6B0F5F4B0B0F3B0F268
:10416000F1F0EFEE84F8061500F0D5B984F80A15E1
:10417000B8F85A00814201D384F80A7584F80875AA
:104180000120019000F0C7B9F17A02EB820001EB47
:104190004000C0B284F80805402801D384F80875AF
:1041A0000099019808430BD194F80A05401CC0B24D
:1041B00084F80A05B8F85A10884201D384F80A75C1
:1041C0000120009000F0A7B921B12A1802F5805211
:1041D00082F89A15284400F580500F2290F89A151D
:1041E00032EA010310D0B2EB111F06D190F8372547
:1041F00001F00F03D21A80F8372598F86020CAB171
:1042000011F00F0F07D00CE090F8372502EB1112D8
:1042100080F83725F1E790F8372502EB111280F886
:1042200037250A0906D190F8372501F00F01511AF8
:1042300080F8371590F93715402904DD402180F8C2
:10424000371500F068B9002980F2658180F837756C
:1042500000F061B921B12A1802F5805282F8A81540
:10426000291801F580520F2392F8A815B3EB111FFE
:104270000BD105EB400303F5805301F00F01B3F8B8
:104280007EC50CEB8101A3F87E1592F8A8150E22CD
:10429000B2EB111F40F03F8105EB400000F580506C
:1042A00001F00F01B0F87E251144A0F87E1532E12F
:1042B00021B12A1802F5805282F8A815291801F5B3
:1042C00080520F2392F8A815B3EB111F0BD105EB09
:1042D000400303F5805301F00F01B3F87EC5ACEB4A
:1042E0008101A3F87E1592F8A8150E22B2EB111FDA
:1042F00044D105EB400000F5805001F00F01B0F80B
:104300007E25511AA0F87E1505E121B12A1802F583
:10431000805282F8D21505EB400000F58050B0F8CD
:104320006215A0F8B6153773F5E0E7E0DBE06AE068
:104330005BE04FE033E022E019E00FE0FFE722B15D
:10434000291801F5805181F8EE25F17A002915D060
:10435000284400F5805080F8FC15DCE021B12A18D3
:1043600002F5805282F8421601F096F8D3E0002957
:1043700004D0284400F5805080F89A15CBE021B194
:104380002A1802F5805282F89A1505EB400000F5D4
:104390008050B0F86215A0F8B6153773BBE009027B
:1043A000B183284400F5805090F82905C0EBC00087
:1043B00000EB400009EB4000408F884240D2B083C0
:1043C000A9E00000D4100020840000205027002025
:1043D000B85A0000002933D0284400F5805080F8F6
:1043E0005E26F17A80F86C1695E022B1291801F565
:1043F000805181F81826F17A11B3284400F58050D5
:1044000080F8261687E0911E0D2919D2DFE801F009
:1044100007192583838332833846836567002844E0
:1044200000F58050684990F82905F27AC0EBC00089
:1044300000EB400009EB400031F81210A0F84210E8
:1044400069E0284400F5805090F8E01501F0F00193
:10445000F27A114380F8E0155DE0284400F58050C1
:1044600090F8E01501F00F01F27A41EA021180F8AC
:10447000E01550E05549F27A084480F86A274AE08E
:10448000F17A072902D90839F17201E00831F17295
:104490004E4AF17A104480F86A173CE0F17AA1B1F3
:1044A000284400F5805090F80D251AB1511E80F86F
:1044B0000D1501E080F80D1590F80D1559B390F821
:1044C0001B05401E84F8080525E0284400F58050AF
:1044D00094F8081580F81B151DE037731BE0F07A7F
:1044E00084F80C0517E04900CD204843800A44F6C3
:1044F0004B41B1FBF0F0A4F804050CE022B12918FF
:1045000001F5805181F8EE25F17A21B1284400F5BA
:10451000805080F8FC15307B002808D02B49727938
:10452000B08B01EB82014FEA8020C1F8080713D15C
:10453000707905EB400000F58050B0F87E05D8B1E9
:10454000307A082818D00B2816D0132802D1B17A57
:104550000D2911D015280FD07079D4F8001505EB6E
:10456000400202F58052B2F97E25B1FBF2F1174A02
:1045700002EB4000A0F84017B07948B17079134AB7
:10458000291801F58051104491F8291580F8F81682
:10459000307A09280BD0122809D070790B4A2918D3
:1045A00001F58051104491F8371580F85C17707947
:1045B000401CC0B2707198F8621181423FF621AD83
:1045C00003B0BDE8F08F0000945B00008C33002046
:1045D0002DE9F041E64E0020F072E64F97F83804DE
:1045E00000287DD9E44D05F58054F07A05EB4001B3
:1045F00001F58051B1F8FE11002900F0AD8194F869
:104600008911C1EBC10105EB4102135C337305EB6A
:10461000810101EB4001B1F880137183111891F809
:10462000802A727391F8001EB1730B09F37301F0C5
:104630000F0131740F2A80F08F81DFE802F00881CA
:104640009DBBBEC1E4FD9C9CFC9C9C9CFB00B17B83
:10465000002900F0818194F88711C84AA2FB013239
:104660005208A2EB8202511805D0012914D0022968
:1046700040F072813BE005EB400202F58052D4F835
:104680008011B2F9FE21B1FBF2F1BD4A02EB40000C
:10469000A0F8401700F060B905EB400101F580512A
:1046A000B1F8C621291801F5805191F8A911C1EB83
:1046B000011107EB410191F92C101144F27B01EB40
:1046C000C20189B2B183B1F5947F80F04581AD4BD1
:1046D000D4F8802133F81110B2FBF1F1A84A00E0C0
:1046E00043E102EB4000A0F8401700F035B905EBBC
:1046F000400101F58051B1F8C621291801F580511A
:1047000091F8A911C1EB011107EB410191F92C10AE
:104710001144327C01EBC20189B2B183B1F5947FBF
:1047200080F01A81974BD4F8802133F81110B2FB36
:10473000F1F1934A02EB4000A0F8401700F00CB9E9
:1047400005EB400101F58051B37BB1F8FE21D21A8F
:1047500012B2A1F8FE21712A02DA7122A1F8FE211B
:10476000B1F9FE11D4F88021B2FBF1F1844A02EBD9
:104770004000A0F84017EFE005EB400101F5805143
:10478000B37BB1F8FE211A4412B2A1F8FE21B2F5B2
:10479000567F03DD4FF45672A1F8FE21B1F9FE11E8
:1047A000D4F88021B2FBF1F1754A02EB4000A0F889
:1047B0004017D1E0FFF7F6F8CEE000F0AFFECBE017
:1047C000FFF7F0F8F27AF37BA81800F5805096F81E
:1047D00010C090F8B711A3EB0C03194449B280F84C
:1047E000B711002903DA002180F8B71104E040294D
:1047F00002DD402180F8B711614990F8B7011144FA
:1048000081F85C07A8E000F089FEF27AF37BA81833
:1048100000F5805096F810C090F8B711A3EB0C0388
:10482000194449B280F8B711002906DA002180F84E
:10483000B71107E030E00FE00BE0402902DD402136
:1048400080F8B7114E4990F8B701114481F85C0720
:1048500082E000F069FD7FE0291801F58051F37BCB
:1048600096F810C091F8B721A3EB0C031A4452B28A
:1048700081F8B721002A03DA002281F8B72104E089
:10488000402A02DD402281F8B7213D4A91F8B71154
:10489000104480F85C175FE0F17B092904D00C29F3
:1048A00012D00D2958D11FE0317CE9B394F887214B
:1048B000B2FBF1F301FB1321B1BB314A002102EB42
:1048C0008000C0F8081747E094F88711327C9142C5
:1048D00042D100212A1802F5805282F8B711284AE5
:1048E000104480F85C1737E094F88711327C9142CD
:1048F00032D1317B61B1291801F5805191F8A9219C
:10490000C2EB021207EB420292F82D2081F8B72188
:10491000718BA1F57F42FF3A05D0194A002102EBC5
:104920008002C2F8081700E016E005EB400202F52D
:104930008052D4F88011B2F9FE21B1FBF2F2104995
:1049400001EB4003A3F840272A1802F580520844DF
:1049500092F8B72180F85C27F07A401CC0B2F07260
:1049600097F8381481423FF640AEBDE8F081000070
:104970001000002050170020D4000020ABAAAAAAE3
:104980008C330020285800002DE9F041F24E002021
:104990007073F24F97F8620100287DD9F04D05F54C
:1049A0008054707B05EB400101F58051B1F87E1514
:1049B000002900F0C68194F80915C1EBC10105EB8F
:1049C000810232F81020F28305EB4101014491F895
:1049D0000027B27391F8802AF27391F8002E327496
:1049E00001F5805191F8801171740B09B37401F0D5
:1049F0000F01F174111F122980F0A381DFE801F08B
:104A0000090D2F53575C60AFB699999999BCF4F38F
:104A100099F200F04BFE00F094B9291801F580518D
:104A200091F8A815E02909D205EB400202F5805261
:104A3000B2F87E3503EB8101A2F87E1505EB40024A
:104A400002F58052D4F80015B2F97E25B1FBF2F1DF
:104A5000C44A02EB4000A0F8401700F072B92918D0
:104A600001F5805191F8A815E02909D205EB400223
:104A700002F58052B2F87E35A3EB8101A2F87E15D3
:104A800005EB400202F58052D4F80015B2F97E25FC
:104A9000B1FBF2F1B34A00E05CE102EB4000A0F8A8
:104AA000401700F04EB9FEF7BFFF00F04AB90021F1
:104AB00000F096FD00F045B900F0EEFC00F041B9C1
:104AC000717C002900F03D8194F80715A64AA2FBED
:104AD00001325208A2EB8202511805D0012914D0EC
:104AE000022940F02E8125E005EB400202F58052BC
:104AF000D4F80015B2F97E25B1FBF2F1994A02EB28
:104B00004000A0F8401700F01CB905EB400202F588
:104B10008052B37CB2F84625D4F800151A44934B62
:104B200033F81220B1FBF2F18E4A02EB4000A0F8FC
:104B3000401706E105EB400202F58052F37CB2F823
:104B40004625D4F800151A44884B33F81220B1FBDF
:104B5000F2F1844A02EB4000A0F84017F1E0002196
:104B600000F03EFD707B00F0A1FDEAE0FEF75CFF87
:104B7000707B00F09BFDE4E0291801F5805191F86D
:104B80006C26002A7DD094F80735B3FBF2FC02FBBB
:104B90001C32002A75D191F85E2682B3102A58D2B1
:104BA000DFE802F057080E141A23292E57343A4032
:104BB000464C575291F83725521E81F8372548E068
:104BC00091F83725921E81F8372542E091F8372574
:104BD000121F81F837253CE091F83725083A81F813
:104BE000372536E0AAE053E04FE091F83725103A38
:104BF00081F837252DE0002281F8372529E03BE0B8
:104C000091F93725521081F8372522E091F83725A0
:104C1000521C81F837251CE091F83725921C81F849
:104C2000372516E091F83725121D81F8372510E059
:104C300091F83725083281F837250AE091F83725B1
:104C4000103281F8372504E091F83725520081F8B9
:104C5000372591F93725402A03DD402281F8372591
:104C600004E0002A02DA002281F837253D4A91F853
:104C70003715024482F85C173A4A002102EB8000A3
:104C800000E05AE0C0F808175BE000F0A9FB58E02C
:104C9000B17C0C2902D00D2953D10FE094F80715EF
:104CA000F27C91424DD100212A1802F5805282F8FF
:104CB00037152C4A104480F85C1742E094F8071529
:104CC000F27C91423DD1B17B79B1291801F5805137
:104CD000274B91F82925C2EBC20202EB420203EBFB
:104CE000420292F8402081F83725F17B402904D810
:104CF0002A1802F5805282F83715F18B6C2905D2FB
:104D0000184A002102EB8002C2F8081705EB4002A6
:104D100002F58052D4F80015B2F97E25B1FBF2F20B
:104D2000104901EB4003A3F840272A1802F58052EE
:104D3000084492F8372580F85C2702E0012100F052
:104D40004FFC707B401CC0B2707397F862118142B7
:104D50003FF627AEBDE8F0818400002050270020F8
:104D6000D40000208C330020ABAAAAAAB85A0000B5
:104D70005017002070B504460E460F4D6420A870F1
:104D800000F01CF8FF2802D1A9780029F8D1FE28EC
:104D900001D0002070BD651C204600F023F86C1C7B
:104DA000284600F01FF8B61EF5D100F007F800F015
:104DB00005F8012070BD0000C000002038B54FF09C
:104DC0008074074DA069FF21026828469047A169B9
:104DD00028464A6A694690470098C0B238BD00002C
:104DE0000080004010B50446FFF7E8FF207010BDBA
:104DF0000148B0F804057047D41000202DE9F05F99
:104E0000854D4FF0000BA5F820B0A5F822B085F82D
:104E100014B0824E96F86201002840F2DD80DFF87F
:104E20000092804C2A7D04EB4208B8F84017002914
:104E30007DD0A01890F8F836C3EBC30303EB430C06
:104E4000794B03EB4C035B8F002B70D004EB820794
:104E5000D7F8083703EB010CC7F808C790F85C17C0
:104E6000002964D090F8F83654F8231001EB9C2107
:104E7000E96204EB430ABAF8A4A4BAF1000F12D015
:104E800004EB8303D3F86C358B421BD8ACEB8A233D
:104E9000C7F8083790F8F83604EB4303B3F8A434A6
:104EA000C91AE9620EE004EB8303D3F88C318B421C
:104EB00008D8A8F840B790F8F81604EB8101D1F8AB
:104EC0008C11E96209EB820101F54051D1F80038FB
:104ED000E96A8B420CD803F2FF338B4208D94A446B
:104EE00002F5405290F8F83692F8382893422CD0C8
:104EF00090F8F80604EB8000B0F88C01401A401CD2
:104F000080B2A884B0F5806F02D94FF48060A88485
:104F10004648FCF706FF287D454B09EB8021AA8C0B
:104F20004248FDF703F8287D09EB800200E04AE0E3
:104F300002F54052E96AC2F800182118484400F509
:104F4000405091F8F81680F83818287DAB8D09EBA1
:104F5000800101F5405109EB8022B1F800185B1A7D
:104F6000C3F30901515C69755B1CC3F30903D35C8E
:104F7000AB75A1F18002591A04EB8003B3F808372E
:104F8000C3F3090311FB03F102EB9121C900204493
:104F900090F85C2712FB01F141F38F11E98490F83E
:104FA0006A07C0F10F02082A00DB08222B8C4A4353
:104FB00003EBE2022A84082800D308204843698CC6
:104FC00001EBE0006884287D401CC0B2287596F88B
:104FD000621181423FF626AFB5F92000C110298445
:104FE000B5F92200C010688401F580621149B1F85A
:104FF000003821F81320B1F8002800F5806001EB9B
:105000004202A2F80004B1F80008401CC0F30800F6
:10501000A1F80008BDE8F09F840000205027002080
:105020008C4300208C33002050170020603D00206E
:10503000B4000020882B002030B587B02A4C002512
:1050400094F8070594F8061588422FD184F807557F
:1050500094F80805402811D194F80A05401CC0B204
:1050600084F80A052149B1F85A10884204D184F81D
:105070000A551F490120087084F8085594F80C055A
:1050800018B1401E84F80C0512E094F80A0594F853
:105090000B15884203D01749405CFDF7DFFE94F8FA
:1050A0000A0584F80B05FEF791FF01E0FFF76CFCA1
:1050B00094F80705401C84F807050F480FA190F8E5
:1050C000B603009094F88A3194F8882102A8FBF77F
:1050D0008DFF00234FF478428C2102A80095FBF746
:1050E00003FA07B030BD0000D41000205027002084
:1050F00002000020B2270020501700202530327512
:105100002F253032752F25303275000070B50546D9
:105110000C4600F0FBFAFF2801D0FF2070BD2846A6
:1051200000F070FB200E00F06DFBC4F3074000F0B0
:1051300069FBC4F3072000F065FBE0B200F062FBFE
:10514000FF20402D00D19520482D00D1872000F070
:1051500059FB4C2D01D1FFF731FE0A24FFF72EFE3B
:1051600010F0800FDAD0611E11F0FF04F6D170BD8F
:1051700070B54C2000F046FB002000F043FB0020FF
:1051800000F040FB002000F03DFB002000F03AFB67
:10519000002000F037FB0024FFF710FEFF2800D0AE
:1051A0000546601CC4B20A2CF6D3284670BD000028
:1051B000F8B5FBF7C9F94FF080752021286AC26B5A
:1051C0004FF040209047286A2022114603684FF094
:1051D0004020984700240A4EA869FF210268304603
:1051E0009047A8696946426A30469047641C0A2C79
:1051F000F2D3286A2021C26C4FF040209047F8BDBE
:10520000008000402DE9F04107460C4615461E4639
:105210002A2000F0D7FA002000F0E4FA384600F027
:10522000E1FA002000F0DEFA284600F0DBFA2B203D
:1052300000F0C8FA002000F0D5FA204600F0D2FABB
:10524000002000F0CFFA304600F0CCFABDE8F04183
:105250002C2000F0B7BA0000014A508091807047BE
:10526000C600002070B582B04FF08075104EA8695E
:10527000C16830468847686C006E804744080D4816
:10528000844200D90446686C006E8047082200946E
:105290000192AA6900230146D2F804C01A4630469A
:1052A000E047A9693046896802B0BDE87040084708
:1052B0000080004020BCBE00014AD08011817047B0
:1052C000C60000200149087070470000C600002099
:1052D00010B50446200A00F02DFAE0B2BDE81040F7
:1052E00000F028BA2DE9F04106460F4634463D4607
:1052F000287868B12178884207D0FAF7D5FF804630
:105300002078FAF7D1FF804505D16D1C641CEFE7CA
:105310003046BDE8F0813D46207810B1741C264629
:10532000E6E70020BDE8F08170B50546294828442D
:1053300000F5805494F9980200F01F0394F8442279
:1053400012F0030206D0012A07D0022A0FD0032A46
:1053500012D10EE02048C15C0EE04FF6FF7101EA69
:10536000C301002808DAC1F1FF0081B204E0FF2187
:1053700002E0FAF79FFFC1B294F88A02484380B274
:10538000810994F998321548002B28440DDB94F9D3
:10539000B72102EB010CBCF1400F02DDC2F140016C
:1053A00089B2114480F85C1708E094F9B721B2EB98
:1053B000010C00D591B2511A80F85C1794F87C0268
:1053C000184440B284F898021F2802DD403884F85F
:1053D000980270BDD4000020785A00008C33002061
:1053E00070B505462948284400F5805494F93406E0
:1053F00000F01F0394F8E02512F0030206D0012A02
:1054000007D0022A0FD0032A12D10EE02048C15C37
:105410000EE04FF6FF7101EAC301002808DAC1F17E
:10542000FF0081B204E0FF2102E0FAF743FFC1B2BE
:1054300094F82606484380B2810994F93436154819
:10544000002B28440DDB94F9372502EB010CBCF14D
:10545000400F02DDC2F1400189B2114480F85C17AF
:1054600008E094F93725B2EB010C00D591B2511A3E
:1054700080F85C1794F81806184440B284F8340693
:105480001F2802DD403884F8340670BDD4000020A7
:10549000B45B00008C33002010B414490123014494
:1054A00001F5805191F8422603EB121302F00F022E
:1054B00002F1010C91F850269C44B2FBFCF40CFB69
:1054C000142281F85026DFF828C09A42604404D2A2
:1054D00091F8373580F85C3702E0002380F85C37BC
:1054E000501C81F8500610BC70470000D40000200A
:1054F0008C33002010B5002804D0027812B1C28885
:105500008A4201D0092010BD4078FCF761FB10F001
:10551000010F01D0032010BD002010BD70B505465D
:105520002C48284400F5805494F96E3203F01F0093
:1055300094F8442212F0030206D0012A07D0022A6E
:105540000FD0032A12D10EE02349095C0EE04FF67A
:10555000FF7101EAC001002B08DAC1F1FF0081B23E
:1055600004E0FF2102E0FAF7A5FEC1B294F8600260
:10557000484380B2C209174994F96EC201F58050C0
:10558000164B01EB450101F5805103EB4503BCF1DE
:10559000000F09DBB1F9FE11D0F880011144B0FB16
:1055A000F1F0A3F8400708E0B1F9FE11D0F880014E
:1055B000891AB0FBF1F0A3F8400794F85202604456
:1055C00040B284F86E021F2802DD403884F86E0273
:1055D00070BD0000D4000020785A00008C330020F9
:1055E00070B505460E462E48284400F5805494F9BF
:1055F0000A1601F01F0094F8E03513F0030306D0FB
:10560000012B07D0022B0FD0032B12D10EE025491E
:105610000A5C0EE04FF6FF7202EAC002002908DAC7
:10562000C2F1FF0082B204E0FF2202E0FAF742FE7C
:10563000C2B294F8FC05504380B20EB1C10900E03B
:105640004109174A94F90AC602F58050164B02EB3D
:10565000450202F5805203EB4503BCF1000F09DB64
:10566000B2F97E25D0F800051144B0FBF1F0A3F8A3
:10567000400708E0B2F97E25D0F80005511AB0FBCA
:10568000F1F0A3F8400794F8EE05604440B284F8C6
:105690000A061F2802DD403884F80A0670BD0000A3
:1056A000D4000020B45B00008C3300201549014475
:1056B00001F5805191F89A2512F00F0F05D191F85C
:1056C000373503EB121381F83735130906D191F8FA
:1056D000373502F00F029A1A81F8372591F93725EC
:1056E000402A03DD402281F8372504E0002A02DA4F
:1056F000002281F83725044A91F83715104480F8C4
:105700005C177047D40000208C33002010B5064C85
:105710003220E070FFF752FBFFF750FBFF2802D06A
:10572000E1780029F8D110BDC000002041EA002036
:1057300070470000F8B506464FF080740C4D206AA3
:1057400000222021036828469847A0693146094E67
:10575000026830469047A0696946426A30469047E1
:10576000206A20221146036828469847F8BD0000A9
:105770000050004000A0004038B5114C00250A2818
:10578000B4F9041017D00D2814D0228900920246D3
:10579000E388B4F90200FCF725FA6088801D00B2A6
:1057A00060802178002905D07A2803DDA0880830A0
:1057B000A080658038BD01F10800A080658038BDFB
:1057C000C600002010B504464FF080710022096A1F
:1057D0004FF040200B68402198472046BDE810401C
:1057E000FFF7A8BF10B504464FF080714022096A48
:1057F0004FF040200B68114698472046BDE8104006
:10580000FFF798BF38B54FF08074064DA269014686
:10581000284612689047A0696946426A2846904720
:1058200038BD0000008000408B0384037E037703B3
:1058300071036B0364035E03580352034C03460376
:1058400040033A0334032E03280322031C031703E7
:1058500011030B0306030003FA02F502F002EA0249
:10586000E502E002DA02D502D002CB02C502C00294
:10587000BB02B602B102AC02A602A3029E029902CA
:1058800094028F028B02860280027C0278027402EC
:105890006F026B02660262025C02590255025002FC
:1058A0004C02480244023F023A02370233022F02FE
:1058B0002B02270223021F021A02170214021002EF
:1058C0000C02080204020102FC01F901F601F201D6
:1058D000EE01EB01E701E401E001DD01DA01D601AF
:1058E000D301CF01CC01C901C501C201BF01BC0177
:1058F000B901B501B201AF01AC01A901A601A30133
:10590000A0019D019A019701940191018E018B01E3
:1059100088018601830180017D017B017801750189
:10592000720170016D016B01680165016301600125
:105930005E015B0159015601530151014F014C01B8
:105940004A0148014501430140013E013C013A0141
:1059500038013501330131012E012C012A012801C2
:1059600026012401220120011D011C011A01180138
:1059700016011401120110010D010C010A010801A8
:105980000601040102010001FE00FD00FB00F90018
:10599000F700F500F400F200F000EE00ED00EB007F
:1059A000E900E800E600E400E200E100DF00DE00DC
:1059B000DC00DB00D900D800D600D400D300D10031
:1059C000D000CE00CD00CB00CA00C800C700C60082
:1059D000C400C300C100C000BE00BD00BC00BB00CD
:1059E000B900B800B700B500B400B300B100B00012
:1059F000AF00AE00AC00AB00AA00A900A700A60053
:105A0000A500A400A300A100A0009F009E009D008F
:105A10009C009B009A0098009700960095009400C7
:105A200093009200910090008F008E008D008C00FA
:105A30008B008A008900880087008600850084002A
:105A400083008200810080007F007E007D007D0059
:105A50007B007B007A007900780077007600760082
:105A600075007400730072007100710070006F00A7
:105A70006E006D006D006C000018314A61788DA1D8
:105A8000B4C5D4E0EBF4FAFDFFFDFAF4EBE0D4C5C5
:105A9000B4A18D78614A31180000000000000000B8
:105AA00000000000000000000000000000000000F6
:105AB0000000000000000000006B0065405F005A1D
:105AC000C0540050804B40474043803F003CA038CA
:105AD00080358032A02F002D602A0028C025A02309
